{
  "contractName": "Todo",
  "abi": [
    {
      "constant": true,
      "inputs": [
        {
          "name": "",
          "type": "uint256"
        }
      ],
      "name": "tasks",
      "outputs": [
        {
          "name": "description",
          "type": "string"
        },
        {
          "name": "isCompleted",
          "type": "bool"
        }
      ],
      "payable": false,
      "stateMutability": "view",
      "type": "function"
    },
    {
      "anonymous": false,
      "inputs": [
        {
          "indexed": false,
          "name": "id",
          "type": "uint256"
        },
        {
          "indexed": false,
          "name": "description",
          "type": "string"
        },
        {
          "indexed": false,
          "name": "isCompleted",
          "type": "bool"
        }
      ],
      "name": "newTask",
      "type": "event"
    },
    {
      "constant": false,
      "inputs": [
        {
          "name": "_description",
          "type": "string"
        }
      ],
      "name": "saveTask",
      "outputs": [],
      "payable": false,
      "stateMutability": "nonpayable",
      "type": "function"
    },
    {
      "constant": true,
      "inputs": [
        {
          "name": "_owner",
          "type": "address"
        }
      ],
      "name": "getTaskIds",
      "outputs": [
        {
          "name": "",
          "type": "uint256[]"
        }
      ],
      "payable": false,
      "stateMutability": "view",
      "type": "function"
    },
    {
      "constant": false,
      "inputs": [
        {
          "name": "_taskId",
          "type": "uint256"
        }
      ],
      "name": "completeTask",
      "outputs": [],
      "payable": false,
      "stateMutability": "nonpayable",
      "type": "function"
    }
  ],
  "bytecode": "0x608060405234801561001057600080fd5b506107ab806100206000396000f300608060405260043610610062576000357c0100000000000000000000000000000000000000000000000000000000900463ffffffff16806317c44f401461006757806345944f09146100d05780638d97767214610168578063e1e2955814610219575b600080fd5b34801561007357600080fd5b506100ce600480360381019080803590602001908201803590602001908080601f0160208091040260200160405190810160405280939291908181526020018383808284378201915050505050509192919290505050610246565b005b3480156100dc57600080fd5b50610111600480360381019080803573ffffffffffffffffffffffffffffffffffffffff169060200190929190505050610427565b6040518080602001828103825283818151815260200191508051906020019060200280838360005b83811015610154578082015181840152602081019050610139565b505050509050019250505060405180910390f35b34801561017457600080fd5b5061019360048036038101908080359060200190929190505050610559565b604051808060200183151515158152602001828103825284818151815260200191508051906020019080838360005b838110156101dd5780820151818401526020810190506101c2565b50505050905090810190601f16801561020a5780820380516001836020036101000a031916815260200191505b50935050505060405180910390f35b34801561022557600080fd5b5061024460048036038101908080359060200190929190505050610631565b005b6000600160006040805190810160405280858152602001600015158152509080600181540180825580915050906001820390600052602060002090600202016000909192909190915060008201518160000190805190602001906102ab9291906106da565b5060208201518160010160006101000a81548160ff0219169083151502179055505050039050336001600083815260200190815260200160002060006101000a81548173ffffffffffffffffffffffffffffffffffffffff021916908373ffffffffffffffffffffffffffffffffffffffff160217905550600260003373ffffffffffffffffffffffffffffffffffffffff1673ffffffffffffffffffffffffffffffffffffffff168152602001908152602001600020600081548092919060010191905055507f1585499bd6907be57c90a45d755262bcedf85977c23fde47fdabf09a935559fb81836000604051808481526020018060200183151515158152602001828103825284818151815260200191508051906020019080838360005b838110156103e75780820151818401526020810190506103cc565b50505050905090810190601f1680156104145780820380516001836020036101000a031916815260200191505b5094505050505060405180910390a15050565b606080600080600260008673ffffffffffffffffffffffffffffffffffffffff1673ffffffffffffffffffffffffffffffffffffffff1681526020019081526020016000205460405190808252806020026020018201604052801561049b5781602001602082028038833980820191505090505b50925060009150600090505b60008054905081101561054e578473ffffffffffffffffffffffffffffffffffffffff166001600083815260200190815260200160002060009054906101000a900473ffffffffffffffffffffffffffffffffffffffff1673ffffffffffffffffffffffffffffffffffffffff1614156105415780838381518110151561052a57fe5b906020019060200201818152505081806001019250505b80806001019150506104a7565b829350505050919050565b60008181548110151561056857fe5b9060005260206000209060020201600091509050806000018054600181600116156101000203166002900480601f0160208091040260200160405190810160405280929190818152602001828054600181600116156101000203166002900480156106145780601f106105e957610100808354040283529160200191610614565b820191906000526020600020905b8154815290600101906020018083116105f757829003601f168201915b5050505050908060010160009054906101000a900460ff16905082565b6001600082815260200190815260200160002060009054906101000a900473ffffffffffffffffffffffffffffffffffffffff1673ffffffffffffffffffffffffffffffffffffffff163373ffffffffffffffffffffffffffffffffffffffff1614151561069e57600080fd5b60016000828154811015156106af57fe5b906000526020600020906002020160010160006101000a81548160ff02191690831515021790555050565b828054600181600116156101000203166002900490600052602060002090601f016020900481019282601f1061071b57805160ff1916838001178555610749565b82800160010185558215610749579182015b8281111561074857825182559160200191906001019061072d565b5b509050610756919061075a565b5090565b61077c91905b80821115610778576000816000905550600101610760565b5090565b905600a165627a7a72305820e7371dc5f1125fe8380f987d2d4b80641f97acef6a214e830ebef0d35ee51eb60029",
  "source": "pragma solidity ^0.4.24;\n\ncontract Todo {\n    event newTask(uint id, string description, bool isCompleted);\n\n    struct Task {\n        string description;\n        bool isCompleted;\n    }\n\n    Task[] public tasks;\n\n    mapping (uint => address) taskToOwner;\n    mapping (address => uint) ownerTaskCount;\n\n    function saveTask(string _description) public {\n        uint id = tasks.push(Task(_description, false)) - 1;\n        taskToOwner[id] = msg.sender;\n        ownerTaskCount[msg.sender]++;\n        emit newTask(id, _description, false);\n    }\n\n    function getTaskIds(address _owner) external view returns (uint[]) {\n        uint[] memory result = new uint[](ownerTaskCount[_owner]);\n\n        uint counter = 0;\n        for (uint i = 0; i < tasks.length; i++) {\n            if(taskToOwner[i] == _owner) {\n                result[counter] = i;\n                counter++;\n            }\n        }\n\n        return result;\n    }\n\n    function completeTask(uint _taskId) public {\n        require(msg.sender == taskToOwner[_taskId]);\n        tasks[_taskId].isCompleted = true;\n    }\n}",
  "sourcePath": "/Users/admin/dev/truffle_projects/todo-dapp/contracts/Todo.sol",
  "compiler": {
    "name": "solc",
    "version": "0.4.24+commit.e67f0147.Emscripten.clang"
  },
  "schemaVersion": "2.0.1",
  "updatedAt": "2018-09-24T04:48:00.761Z"
}